{
  "contractName": "Factory",
  "abi": [
    {
      "anonymous": false,
      "inputs": [
        {
          "indexed": true,
          "name": "fundraiser",
          "type": "address"
        },
        {
          "indexed": true,
          "name": "name",
          "type": "string"
        }
      ],
      "name": "LogFundraiserCreated",
      "type": "event"
    },
    {
      "constant": false,
      "inputs": [
        {
          "name": "name",
          "type": "string"
        },
        {
          "name": "url",
          "type": "string"
        },
        {
          "name": "imageURL",
          "type": "string"
        },
        {
          "name": "bio",
          "type": "string"
        },
        {
          "name": "beneficiary",
          "type": "address"
        },
        {
          "name": "custodian",
          "type": "address"
        }
      ],
      "name": "createFundraiser",
      "outputs": [],
      "payable": false,
      "stateMutability": "nonpayable",
      "type": "function"
    },
    {
      "constant": true,
      "inputs": [],
      "name": "fundraisersCount",
      "outputs": [
        {
          "name": "",
          "type": "uint256"
        }
      ],
      "payable": false,
      "stateMutability": "view",
      "type": "function"
    },
    {
      "constant": true,
      "inputs": [],
      "name": "fundraisers",
      "outputs": [
        {
          "name": "fs",
          "type": "address[]"
        }
      ],
      "payable": false,
      "stateMutability": "view",
      "type": "function"
    }
  ],
  "bytecode": "0x608060405234801561001057600080fd5b50611f31806100206000396000f3fe60806040523480156200001157600080fd5b5060043610620000465760003560e01c806307d98512146200004b5780639d3b435514620000ae578063bec23b2814620000ce575b600080fd5b620000556200039d565b6040518080602001828103825283818151815260200191508051906020019060200280838360005b838110156200009a5780820151818401526020810190506200007d565b505050509050019250505060405180910390f35b620000b862000485565b6040518082815260200191505060405180910390f35b6200039b600480360360c0811015620000e657600080fd5b81019080803590602001906401000000008111156200010457600080fd5b8201836020820111156200011757600080fd5b803590602001918460018302840111640100000000831117156200013a57600080fd5b91908080601f016020809104026020016040519081016040528093929190818152602001838380828437600081840152601f19601f820116905080830192505050505050509192919290803590602001906401000000008111156200019e57600080fd5b820183602082011115620001b157600080fd5b80359060200191846001830284011164010000000083111715620001d457600080fd5b91908080601f016020809104026020016040519081016040528093929190818152602001838380828437600081840152601f19601f820116905080830192505050505050509192919290803590602001906401000000008111156200023857600080fd5b8201836020820111156200024b57600080fd5b803590602001918460018302840111640100000000831117156200026e57600080fd5b91908080601f016020809104026020016040519081016040528093929190818152602001838380828437600081840152601f19601f82011690508083019250505050505050919291929080359060200190640100000000811115620002d257600080fd5b820183602082011115620002e557600080fd5b803590602001918460018302840111640100000000831117156200030857600080fd5b91908080601f016020809104026020016040519081016040528093929190818152602001838380828437600081840152601f19601f820116905080830192505050505050509192919290803573ffffffffffffffffffffffffffffffffffffffff169060200190929190803573ffffffffffffffffffffffffffffffffffffffff16906020019092919050505062000491565b005b60606000620003ab62000485565b905080604051908082528060200260200182016040528015620003dd5781602001602082028038833980820191505090505b50915060008090505b818110156200047d5760008181548110620003fd57fe5b9060005260206000200160009054906101000a900473ffffffffffffffffffffffffffffffffffffffff168382815181106200043557fe5b602002602001019073ffffffffffffffffffffffffffffffffffffffff16908173ffffffffffffffffffffffffffffffffffffffff16815250508080600101915050620003e6565b508191505090565b60008080549050905090565b6000868686868686604051620004a79062000801565b80806020018060200180602001806020018773ffffffffffffffffffffffffffffffffffffffff1673ffffffffffffffffffffffffffffffffffffffff1681526020018673ffffffffffffffffffffffffffffffffffffffff1673ffffffffffffffffffffffffffffffffffffffff16815260200185810385528b818151815260200191508051906020019080838360005b838110156200055657808201518184015260208101905062000539565b50505050905090810190601f168015620005845780820380516001836020036101000a031916815260200191505b5085810384528a818151815260200191508051906020019080838360005b83811015620005bf578082015181840152602081019050620005a2565b50505050905090810190601f168015620005ed5780820380516001836020036101000a031916815260200191505b50858103835289818151815260200191508051906020019080838360005b83811015620006285780820151818401526020810190506200060b565b50505050905090810190601f168015620006565780820380516001836020036101000a031916815260200191505b50858103825288818151815260200191508051906020019080838360005b838110156200069157808201518184015260208101905062000674565b50505050905090810190601f168015620006bf5780820380516001836020036101000a031916815260200191505b509a5050505050505050505050604051809103906000f080158015620006e9573d6000803e3d6000fd5b50905060008190806001815401808255809150509060018203906000526020600020016000909192909190916101000a81548173ffffffffffffffffffffffffffffffffffffffff021916908373ffffffffffffffffffffffffffffffffffffffff16021790555050866040518082805190602001908083835b6020831062000788578051825260208201915060208101905060208303925062000763565b6001836020036101000a03801982511681845116808217855250505050505090500191505060405180910390208173ffffffffffffffffffffffffffffffffffffffff167f90abfad37a2503e16cce667bb7e0542fe1af5963cfe29bdf5f778a83803c336260405160405180910390a350505050505050565b6116f680620008108339019056fe6080604052600060065560006007553480156200001b57600080fd5b50604051620016f6380380620016f6833981018060405260c08110156200004157600080fd5b8101908080516401000000008111156200005a57600080fd5b828101905060208101848111156200007157600080fd5b81518560018202830111640100000000821117156200008f57600080fd5b50509291906020018051640100000000811115620000ac57600080fd5b82810190506020810184811115620000c357600080fd5b8151856001820283011164010000000082111715620000e157600080fd5b50509291906020018051640100000000811115620000fe57600080fd5b828101905060208101848111156200011557600080fd5b81518560018202830111640100000000821117156200013357600080fd5b505092919060200180516401000000008111156200015057600080fd5b828101905060208101848111156200016757600080fd5b81518560018202830111640100000000821117156200018557600080fd5b50509291906020018051906020019092919080519060200190929190505050336000806101000a81548173ffffffffffffffffffffffffffffffffffffffff021916908373ffffffffffffffffffffffffffffffffffffffff1602179055506000809054906101000a900473ffffffffffffffffffffffffffffffffffffffff1673ffffffffffffffffffffffffffffffffffffffff16600073ffffffffffffffffffffffffffffffffffffffff167f8be0079c531659141344cd1fd0a4f28419497f9722a3daafe3b4186f6b6457e060405160405180910390a385600190805190602001906200027892919062000468565b5084600290805190602001906200029192919062000468565b508360039080519060200190620002aa92919062000468565b508260049080519060200190620002c392919062000468565b5081600560006101000a81548173ffffffffffffffffffffffffffffffffffffffff021916908373ffffffffffffffffffffffffffffffffffffffff16021790555062000316816200032260201b60201c565b50505050505062000517565b600073ffffffffffffffffffffffffffffffffffffffff168173ffffffffffffffffffffffffffffffffffffffff161415620003aa576040517f08c379a0000000000000000000000000000000000000000000000000000000008152600401808060200182810382526026815260200180620016d06026913960400191505060405180910390fd5b8073ffffffffffffffffffffffffffffffffffffffff166000809054906101000a900473ffffffffffffffffffffffffffffffffffffffff1673ffffffffffffffffffffffffffffffffffffffff167f8be0079c531659141344cd1fd0a4f28419497f9722a3daafe3b4186f6b6457e060405160405180910390a3806000806101000a81548173ffffffffffffffffffffffffffffffffffffffff021916908373ffffffffffffffffffffffffffffffffffffffff16021790555050565b828054600181600116156101000203166002900490600052602060002090601f016020900481019282601f10620004ab57805160ff1916838001178555620004dc565b82800160010185558215620004dc579182015b82811115620004db578251825591602001919060010190620004be565b5b509050620004eb9190620004ef565b5090565b6200051491905b8082111562000510576000816000905550600101620004f6565b5090565b90565b6111a980620005276000396000f3fe6080604052600436106100dd5760003560e01c80638da5cb5b1161007f578063de2ed89311610059578063de2ed893146104c4578063f14faf6f146104ef578063f2fde38b1461051d578063f516b4221461056e576100dd565b80638da5cb5b146103ae5780638f32d59b14610405578063b90497e014610434576100dd565b806338af3eed116100bb57806338af3eed146102995780633ccfd60b146102f05780635600f04f14610307578063715018a614610397576100dd565b806306fdde03146100e25780631a57f7b4146101725780631f5225951461026e575b600080fd5b3480156100ee57600080fd5b506100f76105fe565b6040518080602001828103825283818151815260200191508051906020019080838360005b8381101561013757808201518184015260208101905061011c565b50505050905090810190601f1680156101645780820380516001836020036101000a031916815260200191505b509250505060405180910390f35b34801561017e57600080fd5b506101876106a0565b60405180806020018060200180602001848103845287818151815260200191508051906020019060200280838360005b838110156101d25780820151818401526020810190506101b7565b50505050905001848103835286818151815260200191508051906020019060200280838360005b838110156102145780820151818401526020810190506101f9565b50505050905001848103825285818151815260200191508051906020019060200280838360005b8381101561025657808201518184015260208101905061023b565b50505050905001965050505050505060405180910390f35b34801561027a57600080fd5b50610283610909565b6040518082815260200191505060405180910390f35b3480156102a557600080fd5b506102ae610913565b604051808273ffffffffffffffffffffffffffffffffffffffff1673ffffffffffffffffffffffffffffffffffffffff16815260200191505060405180910390f35b3480156102fc57600080fd5b5061030561093d565b005b34801561031357600080fd5b5061031c610a76565b6040518080602001828103825283818151815260200191508051906020019080838360005b8381101561035c578082015181840152602081019050610341565b50505050905090810190601f1680156103895780820380516001836020036101000a031916815260200191505b509250505060405180910390f35b3480156103a357600080fd5b506103ac610b18565b005b3480156103ba57600080fd5b506103c3610c51565b604051808273ffffffffffffffffffffffffffffffffffffffff1673ffffffffffffffffffffffffffffffffffffffff16815260200191505060405180910390f35b34801561041157600080fd5b5061041a610c7a565b604051808215151515815260200191505060405180910390f35b34801561044057600080fd5b50610449610cd1565b6040518080602001828103825283818151815260200191508051906020019080838360005b8381101561048957808201518184015260208101905061046e565b50505050905090810190601f1680156104b65780820380516001836020036101000a031916815260200191505b509250505060405180910390f35b3480156104d057600080fd5b506104d9610d73565b6040518082815260200191505060405180910390f35b61051b6004803603602081101561050557600080fd5b8101908080359060200190929190505050610d7d565b005b34801561052957600080fd5b5061056c6004803603602081101561054057600080fd5b81019080803573ffffffffffffffffffffffffffffffffffffffff169060200190929190505050610eca565b005b34801561057a57600080fd5b50610583610f50565b6040518080602001828103825283818151815260200191508051906020019080838360005b838110156105c35780820151818401526020810190506105a8565b50505050905090810190601f1680156105f05780820380516001836020036101000a031916815260200191505b509250505060405180910390f35b606060018054600181600116156101000203166002900480601f0160208091040260200160405190810160405280929190818152602001828054600181600116156101000203166002900480156106965780601f1061066b57610100808354040283529160200191610696565b820191906000526020600020905b81548152906001019060200180831161067957829003601f168201915b5050505050905090565b60608060606000600860003373ffffffffffffffffffffffffffffffffffffffff1673ffffffffffffffffffffffffffffffffffffffff1681526020019081526020016000208054905090508060405190808252806020026020018201604052801561071b5781602001602082028038833980820191505090505b5093508060405190808252806020026020018201604052801561074d5781602001602082028038833980820191505090505b5092508060405190808252806020026020018201604052801561077f5781602001602082028038833980820191505090505b50915060008090505b818110156108f957600860003373ffffffffffffffffffffffffffffffffffffffff1673ffffffffffffffffffffffffffffffffffffffff16815260200190815260200160002081815481106107da57fe5b9060005260206000209060030201600001548582815181106107f857fe5b602002602001018181525050600860003373ffffffffffffffffffffffffffffffffffffffff1673ffffffffffffffffffffffffffffffffffffffff168152602001908152602001600020818154811061084e57fe5b90600052602060002090600302016001015484828151811061086c57fe5b602002602001018181525050600860003373ffffffffffffffffffffffffffffffffffffffff1673ffffffffffffffffffffffffffffffffffffffff16815260200190815260200160002081815481106108c257fe5b9060005260206000209060030201600201548382815181106108e057fe5b6020026020010181815250508080600101915050610788565b5083838393509350935050909192565b6000600754905090565b6000600560009054906101000a900473ffffffffffffffffffffffffffffffffffffffff16905090565b610945610c7a565b6109b7576040517f08c379a00000000000000000000000000000000000000000000000000000000081526004018080602001828103825260208152602001807f4f776e61626c653a2063616c6c6572206973206e6f7420746865206f776e657281525060200191505060405180910390fd5b60003073ffffffffffffffffffffffffffffffffffffffff16319050600560009054906101000a900473ffffffffffffffffffffffffffffffffffffffff1673ffffffffffffffffffffffffffffffffffffffff166108fc829081150290604051600060405180830381858888f19350505050158015610a3b573d6000803e3d6000fd5b507f879a83fc17750905b8aef4ef85e6701b84a50e15d4463dc3c2e7fb0f9dbcf75d816040518082815260200191505060405180910390a150565b606060028054600181600116156101000203166002900480601f016020809104026020016040519081016040528092919081815260200182805460018160011615610100020316600290048015610b0e5780601f10610ae357610100808354040283529160200191610b0e565b820191906000526020600020905b815481529060010190602001808311610af157829003601f168201915b5050505050905090565b610b20610c7a565b610b92576040517f08c379a00000000000000000000000000000000000000000000000000000000081526004018080602001828103825260208152602001807f4f776e61626c653a2063616c6c6572206973206e6f7420746865206f776e657281525060200191505060405180910390fd5b600073ffffffffffffffffffffffffffffffffffffffff166000809054906101000a900473ffffffffffffffffffffffffffffffffffffffff1673ffffffffffffffffffffffffffffffffffffffff167f8be0079c531659141344cd1fd0a4f28419497f9722a3daafe3b4186f6b6457e060405160405180910390a360008060006101000a81548173ffffffffffffffffffffffffffffffffffffffff021916908373ffffffffffffffffffffffffffffffffffffffff160217905550565b60008060009054906101000a900473ffffffffffffffffffffffffffffffffffffffff16905090565b60008060009054906101000a900473ffffffffffffffffffffffffffffffffffffffff1673ffffffffffffffffffffffffffffffffffffffff163373ffffffffffffffffffffffffffffffffffffffff1614905090565b606060038054600181600116156101000203166002900480601f016020809104026020016040519081016040528092919081815260200182805460018160011615610100020316600290048015610d695780601f10610d3e57610100808354040283529160200191610d69565b820191906000526020600020905b815481529060010190602001808311610d4c57829003601f168201915b5050505050905090565b6000600654905090565b610d85611136565b6040518060600160405280348152602001428152602001838152509050600860003373ffffffffffffffffffffffffffffffffffffffff1673ffffffffffffffffffffffffffffffffffffffff16815260200190815260200160002081908060018154018082558091505090600182039060005260206000209060030201600090919290919091506000820151816000015560208201518160010155604082015181600201555050503460066000828254019250508190555060016007600082825401925050819055507f8fa09d0d0409c35ef3a40d2e1f9f00512eedb373c85bd5b86177ba58c3a5a48e33348360200151604051808473ffffffffffffffffffffffffffffffffffffffff1673ffffffffffffffffffffffffffffffffffffffff168152602001838152602001828152602001935050505060405180910390a15050565b610ed2610c7a565b610f44576040517f08c379a00000000000000000000000000000000000000000000000000000000081526004018080602001828103825260208152602001807f4f776e61626c653a2063616c6c6572206973206e6f7420746865206f776e657281525060200191505060405180910390fd5b610f4d81610ff2565b50565b606060048054600181600116156101000203166002900480601f016020809104026020016040519081016040528092919081815260200182805460018160011615610100020316600290048015610fe85780601f10610fbd57610100808354040283529160200191610fe8565b820191906000526020600020905b815481529060010190602001808311610fcb57829003601f168201915b5050505050905090565b600073ffffffffffffffffffffffffffffffffffffffff168173ffffffffffffffffffffffffffffffffffffffff161415611078576040517f08c379a00000000000000000000000000000000000000000000000000000000081526004018080602001828103825260268152602001806111586026913960400191505060405180910390fd5b8073ffffffffffffffffffffffffffffffffffffffff166000809054906101000a900473ffffffffffffffffffffffffffffffffffffffff1673ffffffffffffffffffffffffffffffffffffffff167f8be0079c531659141344cd1fd0a4f28419497f9722a3daafe3b4186f6b6457e060405160405180910390a3806000806101000a81548173ffffffffffffffffffffffffffffffffffffffff021916908373ffffffffffffffffffffffffffffffffffffffff16021790555050565b6040518060600160405280600081526020016000815260200160008152509056fe4f776e61626c653a206e6577206f776e657220697320746865207a65726f2061646472657373a165627a7a7230582012faf8a42a7625617a68d9b57f5b0b15d50babba6dbac248b2b4f6c83200a4a100294f776e61626c653a206e6577206f776e657220697320746865207a65726f2061646472657373a165627a7a7230582037da87857a9bfc2af4b124bf3c0a908e9ff57f628a30a8c24433852557e11ea60029",
  "source": "pragma solidity >0.4.23 <0.7.0;\n\n import \"./Fundraiser.sol\";\n\n contract Factory {\n\n     Fundraiser[] private _fundraisers;\n    event LogFundraiserCreated(address indexed fundraiser, string indexed name);\n\n     function createFundraiser(\n        string memory name,\n        string memory url,\n        string memory imageURL,\n        string memory bio,\n        address payable beneficiary,\n        address custodian\n    ) public {\n        Fundraiser fundraiser = new Fundraiser(\n            name,\n            url,\n            imageURL,\n            bio,\n            beneficiary,\n            custodian\n        );\n        _fundraisers.push(fundraiser);\n        emit LogFundraiserCreated(address(fundraiser), name);\n    }\n\n     function fundraisersCount() public view returns(uint256) {\n        return _fundraisers.length;\n    }\n\n     function fundraisers() public view returns(Fundraiser[] memory fs) {\n        uint256 count = fundraisersCount();\n        fs = new Fundraiser[](count);\n        for(uint256 i = 0; i < count; i++) {\n            fs[i] = _fundraisers[i];\n        }\n        return fs;\n    }\n}\n",
  "sourcePath": "/Users/randallkanna/Documents/dev/book/fundraiser/contracts/Factory.sol",
  "compiler": {
    "name": "solc",
    "version": "0.5.8+commit.23d335f2.Emscripten.clang"
  },
  "schemaVersion": "3.0.10",
  "updatedAt": "2019-09-02T16:31:37.475Z",
  "devdoc": {
    "methods": {}
  },
  "userdoc": {
    "methods": {}
  }
}